:020000040800F2
:10000000A02C0020796200087D6100088161000851
:100010008361000885610008876100080000000016
:10002000000000000000000000000000D75200089F
:100030008961000800000000915200083151000859
:100040009D620008A1620008A5620008A96200087C
:10005000AD620008B1620008B5620008B96200082C
:10006000BD620008C1620008C5620008C9620008DC
:10007000CD620008D1620008D5620008D96200088C
:10008000DD620008E1620008E5620008E96200083C
:100090008B610008ED620008F1620008F56200085B
:1000A000F962000891610008FD6200080163000820
:1000B0000563000897610008096300080D630008E4
:1000C000116300081563000819630008A7610008A0
:1000D0001D630008216300082563000829630008E8
:1000E0002D630008316300083563000878B585B0DA
:1000F000044600260CB9012046E004F585656878C1
:1001000018B92E70204600F04DFB0320687020685F
:1001100000F06BFC83B000F039F80EBC206800F0F2
:100120005DFC2068002100F065FC002204EB461015
:100130002830067086810121761C0F2E4170C27016
:10014000026142618261F1D30020002304EB40117F
:1001500001F50A72537010708886D370401C0F2806
:10016000136153619361F1D383B000F00FF80EBCBB
:10017000206800F041FC002084F82400012169700F
:10018000206800F005FF002006B070BD211D684604
:10019000202200F03DBF10B500F09FF801D10220F1
:1001A00010BD00F08FF8206800F0F0FE206800F02D
:1001B00017FC8EE038B5044600F081F8000444BF17
:1001C000204600F05DF900F07AF840050CD500F00B
:1001D00072F84FF6FF3000F06AF8204600F015FB89
:1001E0000021204600F07EF800F069F8400405D5B3
:1001F00000F061F84BF6FF7000F059F800F05FF87E
:10020000800405D500F057F84DF6FF7000F04FF868
:1002100000F055F8C00417D52168B1F840204FF61A
:10022000FB700240A1F840204FF6F770B1F8402073
:100230000240A1F84020204600F002FB00F03BF80D
:100240004EF6FF7000F033F800F039F8000516D5CF
:10025000206800F14002118841F0080111804FF23E
:10026000FF7193880B409380158845F00405158035
:1002700000F090FEC0045CBF204600F0D3FA00F00E
:100280001EF8800508D500F016F84FF6FF5000F074
:100290000EF8204600F0B5FA00F011F8C00505D5BB
:1002A00000F009F84FF6FF6000F001F831BD0240A0
:1002B000A1F8442070472168B1F8442070472068B5
:1002C00000F068BE012084F828040121204600F0D7
:1002D00084BB002084F8280410BD044694F8280448
:1002E0000128704710B5FFF7F8FF01D1022010BDBB
:1002F00000F006F884F82410206800F041FEE8E7DA
:10030000012084F82804704738B500F035F80D0650
:100310004CBF283000F50A7001F07F050570C9094F
:1003200041700261C37094F82814012901D10220A0
:1003300032BD00F01BF800F06FFB9DE010B500F03F
:100340001BF80A064CBF283000F50A7001F07F0246
:100350000270C909417094F82814012901D10220C2
:1003600010BD00F003F800F074FCB2E7012284F83D
:100370002824014620687047044601F07F0004EB02
:100380004010704710B501F07F0400EB441404F5F1
:100390000A7401F07F016261A3610022E261627070
:1003A00015E001F00F0100EB4110D0F8440280B2DB
:1003B000704710B501F07F0400EB441428346261EB
:1003C000A3610022012301F07F01E26163702170CB
:1003D0002146006800F0BAFC002010BD38B5054683
:1003E0000C462106204606D500F07F0205EB42139D
:1003F00003F1280103E005EB441101F50A71012224
:100400008A7004F07F040C70C009487095F82804C5
:10041000012801D1022032BD85F82824286800F087
:1004200053FD24B9286805F22C4100F0B6FD0020E8
:1004300085F8280432BD38B5044608060A4606D5B4
:1004400002F07F0304EB431505F1280003E004EB01
:10045000411000F50A700023837001F07F010170E4
:10046000D209427094F82814012901D1022032BD2A
:10047000FFF77CFF00F04DFD002084F8280432BD1A
:100480002DE9F84F0022ADF80020ADF8002000F56E
:100490000A7500F1240940F68F7A04462DE00188A0
:1004A00048F60F72114001802068B0F8501099F89A
:1004B000042001EBC20100EB410000F2044000689F
:1004C000D9F81820C0F30900C9F820000244C9F87F
:1004D00018200021204600F08DF999F8002062B123
:1004E000D9F81C0048B999F80010206841F0800143
:1004F000A0F84C10002189F80010206800F1440198
:100500000A88ADF80020120440F12C81BDF80020CB
:1005100012F00F0870D1BDF80020D306BFD50288B5
:10052000ADF80020BDF800301A0519D589892A7860
:1005300001EBC20100EB410303F20C431B68AA88E4
:10054000C3F30903EB6104F22C4100F043FD206882
:1005500001880AEA01010180204600F03DF9CCE75C
:10056000BDF800100A04C8D501880AEA010101801B
:100570002068B0F85020297802EBC10200EB42035A
:1005800003F20C431B68C3F30903002BEB6107D094
:10059000AA88696900F01EFD6869E969014469611A
:1005A0000021204600F01EF92068B0F8501000EB42
:1005B000410029693F2900F20C4009D34A0911F092
:1005C0001F0F08BF521E920242F4004292B205E091
:1005D0004A08C90748BF521C9206120C02604BF62B
:1005E0008F7220680188114081F4405141F400412C
:1005F00041F08001018080E730F82810ADF800104C
:1006000004EB4816BDF800100A0451D530F8281044
:100610000AEA010120F8281006F50A77206897F801
:1006200000C0B97A51B9B0F8501000F0AFF82BD033
:10063000BA8879695B4600F0CDFC25E030F82C10D3
:100640004904B0F850100DD511EBCC0200EB420379
:1006500003F204431968C1F3090BBBF1000F09D081
:10066000FA8803E000F092F804D03A895B46796991
:1006700000F0B0FC2168387800F077F842F40042CE
:1006800042F0C00221F82020F9695944F9617A69E1
:100690005A447A61BB6913B139698B4504D2397800
:1006A000204600F09FF803E039782046FFF76AFE05
:1006B000BDF80000010651D5206830F8281048F632
:1006C0000F72114020F8281016F8283F2768B07ADA
:1006D000D90050B9B7F8500000F04DF827D0B288D3
:1006E0007169206800F064FC21E037F823004306BC
:1006F000B7F8500004D500F03EF80ED0F28808E0BC
:10070000091807EB410202F20C4200F039F804D05C
:1007100032897169206800F04BFC2168307800F064
:1007200024F842F4404242F0800221F82020206860
:100730003178B0F8502002EBC10200EB420000F229
:1007400004400068C0F30900F061726902447261FC
:100750002046B369002B02D100F04CF8CDE6FFF73C
:1007600028FECAE60020BDE8F28F31F8202048F6C6
:100770008F731A407047091807EB410202F20442D6
:100780001368C3F30903002BF361704711EBCC022C
:1007900000EB420303F20C431968C1F3090BBBF1F0
:1007A000000F704700688749884200D0704780B5C5
:1007B0008548026842F4000202600022006800F4EA
:1007C0000000009005210098142000F0BBFCBDE85B
:1007D0000240142000F0D3BC00F22C41D0F85C049D
:1007E00000F012BD00EB4112D0F85C04D2F83C22BC
:1007F00000F035BD00EB4112D0F85C04D26B00F084
:1008000061BDD0F85C0400F0DABD10B504460121EA
:10081000D4F85C0400F0C2FDD4F85C04BDE81040DC
:1008200000F09CBD10B50446D4F85C0400F0B9FD9E
:10083000A06920B16548016841F00601016010BD62
:10084000D0F85C0400F0B5BD10B5044660485D49C1
:10085000C0F85C44C4F82002082201604260022310
:10086000032100228360C1608261C2610262FFF7DE
:100870003DFC08B100F01AFED4F820021823002233
:10088000002100F015FED4F8200258230022802118
:1008900000F00EFED4F82002C0230022812100F0D7
:1008A00007FED4F820024FF488730022012100F0E3
:1008B000FFFDD4F820024FF480730022822100F063
:1008C000F7FD002010BD10B5D0F82002FFF763FC43
:1008D000002418B102280CBF01240224204610BDB8
:1008E00038B51C461346D0F820022246FFF70CFD0F
:1008F000002518B102280CBF01250225284632BD6B
:1009000010B5D0F82002FFF719FD002418B1022815
:100910000CBF01240224204610BD10B5D0F82002DF
:10092000FFF75CFD002418B102280CBF012402244B
:10093000204610BD10B5D0F82002FFF77CFD002442
:1009400018B102280CBF01240224204610BDD0F8A3
:10095000200201F07F02090600EB421002D590F858
:100960002A00704790F82A02704710B5D0F820028C
:10097000FFF7B8FC002418B102280CBF01240224A0
:10098000204610BD10B5D0F82002FFF712FD00245C
:1009900018B102280CBF01240224204610BD10B556
:1009A000D0F82002FFF7EEFC002418B102280CBF9B
:1009B00001240224204610BDD0F82002FFF7F1BC2C
:1009C00004487047005C00401C10024010ED00E03D
:1009D000D01A002054210020704770470EB418E050
:1009E000B0F8401041F43F41D9E2B0F8402044F261
:1009F000FF21D8E2002070470EB4012120F8401FEB
:100A000000220280828000210182028842F43F425B
:100A10000280002003B070472DE9F0430A4648F6F3
:100A20008F11D378032B16D8DFE803F0020F070AE3
:100A300000F00AF941F400710BE000F005F908E05C
:100A400000F002F941F4C06103E000F0FDF841F468
:100A5000806120F8231011780D4630F8256048F6A3
:100A60008F74264048F280033143194320F8251043
:100A70004BF68F75917A92F8008000294CF280062F
:100A800048F6BF7748F2C00C57D1918849084FEA21
:100A9000410951780029B0F8501001EBC80117D076
:100AA00000EB410101F58061C1F80090117830F848
:100AB00021506E0606D530F821502C404CEA040433
:100AC00020F8214000F0B3F8174087F020077BE0C2
:100AD00000EB410707F58167C7F80090B0F85010A8
:100AE000177801EBC70100EB410E11693F290EF2A7
:100AF0000C4E09D34F0911F01F0F08BF7F1EBF0214
:100B000047F40047BFB205E04F08C90748BF7F1C44
:100B1000BF063F0CCEF80070117830F821707F04CA
:100B200005D530F821703C40344320F8214000F0D6
:100B30007EF8154085F440556DE030F828102140CE
:100B400041F4014141F0800120F8281000F073F8D1
:100B500001F58069D18849084900C9F8001000F002
:100B60006AF801F5816E118949084900CEF8001034
:100B7000517892F800E0002930F82E1026D149046F
:100B800005D530F82E1021400E4320F82E60117844
:100B900030F82160760606D530F8216026404CEA10
:100BA000060620F82160117830F8216034404CEAC4
:100BB000040400F036F8254085F440551D4320F824
:100BC000215000F034F817403B4325E0490405D597
:100BD00030F82E102140314320F82E10117830F8D3
:100BE00021E05FEA4E6807D530F821E004EA0E0EF6
:100BF0004CEA0E0C20F821C0117830F821C004EA2C
:100C00000C04344300F00DF827401F4320F82170F6
:100C100000F00DF815402B4320F821300020BDE8EE
:100C2000F08320F82140117830F821407047117886
:100C300030F821207047B0F8501092F8008001EB96
:100C4000C80100EB41017047137830F82340214080
:100C500070472DE9F041024691F800E048788B7A20
:100C60004BF68F764CF2800848F2800448F6BF7548
:100C700048F2C00C48F68F77BBB9002832F82E0036
:100C800009D0430628D532F82E0007404CEA070069
:100C900022F82E0020E0430439D532F82E00074018
:100CA00048EA070022F82E0031E0002832F82E0032
:100CB0001AD1430406D532F82E00384048EA000025
:100CC00022F82E0000F031F84CEA070300F027F874
:100CD0001E40264322F82060087832F820100D408C
:100CE0002C4322F8204019E0430406D532F82E00A8
:100CF000384048EA000022F82E0000F016F848EAD2
:100D0000070300F00CF81D40254322F82050087816
:100D100032F820100E40264322F82060B5E022F879
:100D20002030087832F820307047087832F82030C8
:100D30005B0606D532F820303B404CEA030322F82C
:100D40002030087832F820301F4070472DE9F041FC
:100D50000D4680466A78A8692969012A074648F243
:100D6000800640D181423ABF0F46C01B0020A861D7
:100D7000A87A28B9AA8800F091F800F09AF829E03A
:100D80002878C10038F820004206B8F8500003D592
:100D900000F088F82A8902E000F084F8EA8800F080
:100DA0007DF8687848F68F7140B9287838F82020A7
:100DB000114041F4004141F0C00109E0012809D18E
:100DC000287838F82020114041F4404141F080015A
:100DD00028F82010297838F8212048F6BF70024002
:100DE00082F030024EE081423ABF0F46C01B002025
:100DF000A97AA8617B0800294FEA571C07F0010077
:100E00001AD0BAB900F044F808EB41013F2F01F2C3
:100E1000044109D3624617F01F0F08BF521E920209
:100E200042F4004292B204E01A4600B1521C92060B
:100E3000120C0A606978C9B900F02AF808EB41047D
:100E40003F2F04F20C440BD317F01F0F08BFACF177
:100E5000010C4FEA8C2040F4004080B2206009E091
:100E600000B15B1C9B061B0C236003E0012901D130
:100E700000F01FF84BF68F70297838F821200240D7
:100E800082F44052164328F821600020BDE8F0812A
:100E9000B8F850102A7801EBC20170476969BBB2FB
:100EA000404685E0091808EB410404F20444276039
:100EB0007047B8F85000297800EBC10008EB4004F7
:100EC00004F204442760704710B50A7848F28003A2
:100ED00052B902884BF6BF710A4082F4805282F008
:100EE00010021343038012E0497830F822400029B1
:100EF00005D048F6BF710C4084F0100404E04BF6B6
:100F00008F710C4084F48054234320F82230002059
:100F100010BD70B54A780C78002A30F8242048F2C9
:100F2000800348F68F7513D0560608D530F8242074
:100F3000154045F4004545F0C00520F824500A78D6
:100F400030F8224048F6BF710C4084F0300412E0C3
:100F5000560408D530F82420154045F4404545F0A6
:100F6000800520F824500A7830F822404BF68F7123
:100F70000C4084F44054234320F82230002070BDFC
:100F800011B98021A0F84C10002070470020704754
:100F900000207047B0F84400704700207047A0F868
:100FA0004010002070470A40A0F840200020704701
:100FB00010B500EB42005B1C00F580605B1007E0A1
:100FC0000A784C7842EA0422891C20F8042B5B1E24
:100FD000F6D110BD00EB42005B1C00F580605B1099
:100FE00004E050F8042B21F8022B5B1EF9D1704766
:100FF00062B38B0708D0521E11F8013B00F8013B89
:1010000000F024808B07F6D1830740F0208000BFDA
:10101000103A07D330B4B1E83810103AA0E83810CD
:10102000F9D230BC530724BFB1E80810A0E808107B
:1010300044BF51F8043B40F8043BD20724BF31F8C9
:10104000022B20F8022B44BF0B7803707047121F4D
:1010500017D35B0009D151F8043B20F8023B1B0C6D
:10106000121F20F8023BF6D20BE051F8043B00F8C7
:10107000013B1B0A20F8023B1B0C121F00F8013B2E
:10108000F3D238BF121D521E24BF11F8013B00F8E5
:10109000013BF8D87047F0B4024610689568131801
:1010A000506803EB5004C0071DD54D441BE013F8F6
:1010B000017B05F8017B491EF9D1A0B1B60813F8F0
:1010C000011B06F00306032E08BF13F8016B01EBAA
:1010D00006214942801C294405D011F8016B05F80E
:1010E000016B401EF9D1A3420ED013F8016B16F02C
:1010F000030104BF13F8011BC91C30090F28DAD102
:1011000013F8010B0F30D6E7F0BC02F10C0070476A
:101110000901020006D51F4A00F00F00104400F834
:10112000041C70471C4B195470471C4B19684FF630
:10113000FF020002114000F4E06008431849084330
:101140001860704738B5154B1C68C4F30223C3F10F
:101150000704052C28BF04241D1D072D34BF0023C0
:10116000DB1E012505FA04F4641E2140994005FAAE
:1011700003F35B1E1A401143BDE83440C8E7012267
:1011800000F01F01074BFFE78A40400943F8202089
:101190007047000018ED00E000E400E00CED00E016
:1011A0000000FA0500E100E038B508B9022032BDC0
:1011B00000F5FE74A3690BB10025A56101B1616161
:1011C000012121700270FFF73FFB002032BD024673
:1011D000002011B1C2F8141270470220704780B588
:1011E000FFF771FB002002BD10B5D0F814220224D5
:1011F0001AB11268904700B90024204610BD80B58E
:10120000D0F814225368E6E038B5044604F50275B8
:10121000284600F016FB04F5FA7001210160428BAC
:10122000017D426011F01F0003D002280BD005D3CE
:101230000EE02946204600F071F90EE029462046CE
:1012400000F007FA09E02946204600F01DFA04E004
:1012500001F080012046FFF760FB002032BD38B569
:10126000044610460A0004F5FA7320D119680329D0
:1012700026D104F586714A680D68AA420AD2AD1AD1
:101280000D60954238BF2A46014692B2204600F0D2
:1012900034FB15E0196A086928B1187A032802D1CD
:1012A000096920468847204600F02FFB08E01A6AAB
:1012B000906928B1187A032802D192692046904794
:1012C000002032BD38B5044610460A0004F5FA7510
:1012D00039D12968022930D1E269216A914207D2C5
:1012E000521AE261014692B2204600F0F4FA11E08F
:1012F000A269B2FBF1F001FB102090B98A4210D331
:10130000686882420DD200220021204600F0E3FAF4
:10131000002068600023002200212046FFF73FFBE9
:101320000BE0296AC86828B1287A032802D1C96865
:1013300020468847204600F0EFFA287B01280BD191
:101340000021297308E02A6A506928B1287A032805
:1013500002D1526920469047002032BD10B50446A4
:10136000402300220021FFF7BBFA4022C4F81021DD
:101370004023002280212046FFF7B2FA402004F5E6
:10138000FE7220620121D069117028B192696168F2
:101390005368C9B220469847002010BD0174002050
:1013A000704700F5FE700422017841700270002041
:1013B000704700F5FE70417801700020704780B5DD
:1013C00000F5FE710A78032A03D18969C96901B160
:1013D0008847002002BD9847002002BD80B500F07C
:1013E000A3FA00F015F800F0B1FA00F011FB00F0DC
:1013F0004BFB00F03FFC00F099FC00F003FD00F017
:1014000057FD00F013FB00F077FD00F09BFEFEE7B8
:1014100000B593B009A8282100F0B8FE04A8142153
:1014200000F0B4FE6846102100F0B0FE05210991DD
:1014300001234FF480310A910C930D9311910022F6
:1014400002234FF4E0110B921093129109A800F0BF
:10145000A1FE02210591002206920F204FF4806127
:10146000049007914FF4A0620892022104A801F0B1
:101470001DF813214FF48072009101924FF4004146
:10148000002202910392684601F022F901F0AAF8C5
:1014900013B000BD000000680349884208BF01F096
:1014A000F1B9704700000000002C014070470000B7
:1014B00010B50C0605D501F07F0100EB4110283076
:1014C00003E000EB411101F50A701AB900218172A5
:1014D000838004E0C38001211B0C81720381002002
:1014E00010BD30B4002513E050F8042BD30744BFDF
:1014F000A9F101039A18091F042942F8045BFAD2E2
:1015000013468C0744BF15809B1CC90748BF1D703C
:1015100050F8041B0029E7D130BC7047F8B50D46E0
:1015200004466878092804F5FE7646D8DFE800F01E
:10153000647B4574450905455323204600F008F9AE
:1015400080E0A888002804BFE888002835D13078DA
:10155000AF78032807F07F072FD0B77039462046B1
:10156000FFF703FA00F08DF8002F07BF012131705B
:101570000220307066E0344F68883870397802296C
:101580001BDA3378022B08461AD0032B15D131B958
:101590000220307061602046FFF731FE50E0616844
:1015A00088424DD0C9B22046FFF729FE39786160E4
:1015B0002046FFF719FE022842D100F047F841E02B
:1015C00000293DD06060032030702046FFF70CFEFC
:1015D0000228F2D034E0E8880128EED131780229DF
:1015E00004D00329E9D10122211D11E00020A060CF
:1015F000012204F108010BE03078801E0128DCD8BC
:10160000B068012100B10321E160022204F10C0164
:10161000204600F058F915E06888012812D1012110
:10162000B160294608E03078801E0128C5D86A8854
:10163000012A07D10020B0602046B269936898471C
:1016400000F01FF80020F2BD9D280020294620460A
:101650000BE138B5044604F5FE720D4610780328F8
:101660000BD12879022808DA9269936820469847B6
:10167000E88820B900F005F801E0FFF7E8FF002056
:1016800032BD204600F041B970B50D4604462878B9
:10169000297900F06000202804F5FE7602D100F0E0
:1016A00051F84DE06A78002A01F07F0026D0012A27
:1016B0000FD0032A44D13078022810D003283DD11E
:1016C0006888B0B900291EBF80292046FFF725F998
:1016D0000FE03278022A02D0032A04D02EE000293B
:1016E0002ED0802911E06A8852BB20B12046FFF736
:1016F00021F900F027F8FFF7C4FF21E03278022A31
:1017000002D0032A06D019E0002819D02046FFF79E
:1017100004F915E004EB00100B064CBF00F11405B2
:1017200000F582752046FFF712F900B1012028600C
:1017300002222946204600F0C6F801E0FFF786FFA6
:10174000002070BDB2699368294620461847000002
:1017500038B50D4604466888030A012B04F5047267
:1017600008D0022B21D0032B2CD0062B56D0072BD0
:101770005BD063E01268207C136869469847BDF827
:10178000001000291CBFE98800290DD0BDF8001009
:10179000EA88914288BF1146ADF800100146BDF8B5
:1017A0000020204600F08FF831BD207C51680028D1
:1017B000684604D1896A884702224270DFE7C96A15
:1017C0008847F9E7C0B2052838D8DFE800F00309F8
:1017D0000F151B211268207C536869469847CEE795
:1017E0001268207C936869469847C8E71268207C95
:1017F000D36869469847C2E71268207C1369694636
:101800009847BCE71268207C536969469847B6E759
:101810001268207C936969469847B0E7207C68B9D4
:1018200051684A6B68469047A9E7207C30B95168F7
:101830000A6B6846904707214170A0E7FFF707FF52
:1018400031BD0A7802704B7843708A78CB7802EB0E
:10185000032242804B790A7902EB032282808A7943
:10186000C97902EB0122C280704710B5044680217D
:10187000FFF753F82046BDE810400021FFF74DB8B0
:1018800000280B4600D1704770B50146002400E0E7
:10189000641C11F8015B002DFAD12406E40DA41C90
:1018A00014801188197003225A70022207E010F880
:1018B000011BD4B2521C1955D6B2521C9D55017849
:1018C0000029F4D170BD80B513460222C0F8F4217E
:1018D0008361C36101E080B513460A460021FFF72A
:1018E00051F8002002BD80B513460322C0F8F42150
:1018F00000F584721360536001E080B513460A4618
:101900000021FFF74CF8002002BD80B50421C0F88B
:10191000F41100230022E1E780B50521C0F8F4119D
:1019200000230022ECE7000080B50748016841F081
:10193000100101600320FFF7F8FB002000F0AAFF70
:1019400000F0E4FF002002BD0020024030B585B069
:101950006846102100F01AFC2548264D046844F022
:10196000100404600168244C01F0100104910499F2
:10197000026842F020020260036803F0200304932F
:101980000499026842F004020260036803F0040351
:1019900004930499026842F0080202600022006881
:1019A00000F00800049040210498204601F09BF8C4
:1019B00001224FF40071284601F095F80E20002115
:1019C00000900191012202926946204600F0C4FF76
:1019D000402100F013F8204600F0BEFF4FF40071E4
:1019E00000F00CF8284600F0B7FF05B030BD00004D
:1019F00018100240000C0140000801400091012233
:101A00000192002102910222039269467047000070
:101A100030B500BF91A1874CD1E9002389B000F017
:101A200072F800F069F84FF0804539E0D0B586B023
:101A300002A8102100F0AAFB8AA47F48D4E900671D
:101A40007E4C20604FF4E150CDE900670021E0605A
:101A50006160A1602161A161204601F063F808B1D5
:101A6000FFF724FD4FF48050029002A9204601F0B8
:101A700001FA08B1FFF71AFD00F04BF808B1FFF7C3
:101A800015FD06B0D0BD000030B500BF77A16C4C8D
:101A90006C4DD1E9002389B000F035F800F02CF846
:101AA000A1602161A1612560204601F070F808B1B4
:101AB000FFF7FCFC00F02DF808B1FFF7F7FC602100
:101AC00002914FF42A72039200210491002206929F
:101AD00002A9204601F056F908B1FFF7E7FC0422FD
:101AE00002A9204601F04EF908B1FFF7DFFC2046BD
:101AF00000F04CF809B030BD0020606000214FF4C8
:101B00007A70E060704702A8CDE900231C2100F044
:101B10003DBB0021009101912046694601F024BBA4
:101B200081B000684849B0F1804F07D1086840F0A3
:101B300001000860096801F0010109E0414A904292
:101B400008D1086840F004000860096801F0040149
:101B50000091009801B0704700683749884200D072
:101B6000704780B53848026842F0020202600022E5
:101B7000006800F0020000900A2100981D20FFF785
:101B8000E1FABDE802401D20FFF7F9BA18B585B0AB
:101B900004466846102100F0F9FA20682B4C2C49C5
:101BA000B0F1804F2BD1086840F0040008600A684B
:101BB00002F00402049204980A6842F008020A60E3
:101BC00000F031F84FF4004104982248009101924E
:101BD0000392694600F0C0FE0820022100900191A6
:101BE00003912046694600F0B7FE1B48016821F4C6
:101BF000407141F0E06141F48071016011E0114AEF
:101C000090420ED1086840F00800086000F00BF820
:101C1000C02104980091019203926946204600F089
:101C20009BFE06B010BD0222096801F00801049174
:101C3000704700003827002000040040782700206B
:101C4000B8270020000800401C100240000C014092
:101C5000181002400008014004000140000000008C
:101C60000000000000000000000000000000000074
:101C70000000000080B52948294901604FF48272B4
:101C80000021C16001614260012141614FF4007295
:101C900018218261C1614FF4004300220A21836050
:101CA000026242628262C16201F083FA18B1BDE849
:101CB0000140FFF7FBBB01BD30B585B0044601A86C
:101CC000102100F063FA2468154DAC4224D1154868
:101CD000016841F480510160026802F48052009270
:101CE0000099026842F004020260A021006800F03E
:101CF00004000090022200980B48019102920321F7
:101D0000049101A900F028FE002205212320FFF7FD
:101D100019FA2320FFF733FA05B030BDA0260020C2
:101D20000030014018100240000801403EB500BFDD
:101D300032A100BF32A30A6819682C4C01920091AD
:101D40004FF0FF312A4820604FF480726160A2603A
:101D5000204601F06FFA08B1FFF7A8FB01212046E9
:101D600001F014FD4AF6BB25A84228D02A460121DD
:101D7000204601F005FD122000218DF804008DF8A9
:101D8000051000228DF8062001A9204601F09EFAD8
:101D900008B1FFF78BFB002104228DF800108DF8AD
:101DA0000120152113228DF802108DF803206946B9
:101DB0000022204601F032FB08B1FFF777FB37BD68
:101DC00000680B49884200D0704780B501F0E6FCFE
:101DD0000848094A016841F000610160012100687A
:101DE00000F0006000900098116001BD28280020DC
:101DF000002800401C1002403C0442420000000049
:101E0000000000003EB5684600210022002380E863
:101E10000E00234CA160E16061614FF46021E1613B
:101E20000121204D626021612560204601F0BEFC49
:101E300008B1FFF73BFB00200121009001910290C7
:101E40006946204601F046FE08B1FFF72FFB37BD7B
:101E500030B585B0044601A8102100F097F9246838
:101E6000104DAC421AD11048016841F40071016074
:101E70000323026802F4007200920099026842F0A3
:101E8000040202600122006800F004000090009942
:101E90000192029301A9054800F05EFD05B030BD36
:101EA000F8270020002401401810024000080140DB
:101EB00080B50E480E49016001F0FEFE18B1BDE884
:101EC0000140FFF7F3BA01BD81B0006808498842BC
:101ED00009D10848026842F040020260006800F040
:101EE00040000090009801B070470000902800204A
:101EF000003002401410024080B594B00DF13C0057
:101F000079A100F020F800210FA800F020F9644921
:101F100008600AA879A100F016F800210AA800F0CC
:101F200016F905A87AA100F00EF8002105A800F026
:101F30000EF968467BA100F006F80021684600F023
:101F400006F915B000BD1422FFF762B8FEB501F026
:101F5000C3FE012000F012F95248534CDFF84C51F7
:101F60000FF280165EA700F0F3FD204600F0E7FDBB
:101F700000F0B2F8042100F0B0F84D4C204600F01B
:101F8000DEFD00F0A9F8042100F0A7F801F0C0FE82
:101F90000021002001F0D9FE0121012001F0D5FE31
:101FA000012001F0E6FE0221022001F0CEFE032115
:101FB000032001F0CAFE01F0EFFE032001F01FFF35
:101FC000642000F0DBF83B4C002200F080F8642035
:101FD00000F0D4F8012200F07AF800224FF40071EA
:101FE000354800F080FD01224021344800F07BFD9F
:101FF000012000F0C3F8002002F04FF80A243968ED
:1020000032680091019269460022284601F0A3F946
:1020100008B1FFF74BFA002201A9284601F055FA52
:1020200008B1FFF743FA4FF0804001F0D2FE0320E1
:1020300001F0E5FE032001F0C2FE9DF801000A2137
:1020400090FBF1F149B2002001F0EEFE9DF8011085
:1020500000F036F8012001F0E7FE9DF8020041088B
:1020600000EB91729208A0EB8200C0B201F081FEF9
:102070009DF802000A2190FBF1F149B2022001F023
:10208000D3FE9DF8021000F01BF8032001F0CCFEF7
:1020900001F0C9FE4FF47A7000F070F8AFE700006D
:1020A00098280020782700203827002028280020A2
:1020B000B827002000100140000C0140000801403A
:1020C0000A2091FBF0F004FB101149B270474FF465
:1020D0000051204600F007BD0021204600F064BDFD
:1020E0000000000000000000BC6100084D1F000857
:1020F000000000000000000080000000C86100082F
:10210000215900080000000000000000000100004C
:10211000D0610008593E00080000000000000000E7
:1021200080000000DC610008195600080000000073
:10213000000000008000000001460020842918BF34
:10214000C81C704780B502F027F8002002BD3EB5DC
:1021500004460D46B4F90800FFF7EEFF02A901910D
:1021600000902B4622692168606892B201F0DCFE83
:10217000012801D000203EBD02983EBD80B500B9C7
:10218000012001F0B5FF002002BD0000002202F096
:10219000E3B900002DE9F8430646DFF8EC54307847
:1021A000C10748D5686800F00C00042807D06868AB
:1021B00000F00C0008280BD16868C10308D5286816
:1021C000810338D57068002840F0BE80012067E1A7
:1021D0007068B0F5803F04D1286840F480302860F2
:1021E00014E008B928680AE0B0F5A02F286806D1E5
:1021F00040F480202860296841F4803105E020F413
:1022000080302860296821F480212960706868B1D5
:1022100002F0BCF904462868810300F1958002F0C1
:10222000B5F9001B6528F6D3032039E102F0AEF9B9
:1022300004462868810340F1878002F0A7F9001B5B
:102240006528F6D3F0E702F0A1F9001B022840F25E
:10225000AA80E9E7306970B10121396002F096F98E
:1022600004462868810700F1DC8002F08FF9001B2A
:102270000228F6D9D8E7386002F088F904462968C0
:10228000880765D502F082F9001B0228F7D9CBE751
:10229000086002F07BF90446686A810777D502F08E
:1022A00075F9001B0228F7D9BEE708B9286A09E0CA
:1022B0000528286A06D140F004002862286A40F008
:1022C000010005E0400840002862286A20F0040070
:1022D000286240F2F518F06868B102F057F98146BB
:1022E000286A810700F1AA8002F050F9A0EB0900EA
:1022F0004045F5D398E702F049F98146286A8107FD
:1023000040F19C8002F042F9A0EB09004045F5D372
:102310008AE702F03BF9001B022840F2A28083E723
:1023200002F034F9001B022840F2B5807CE700F08F
:10233000B9F804462868810140F1B18002F026F91D
:10234000001B0228F6D96FE73078DFF84873810761
:102350001BD5686810F00C0F09D0686800F00C00FD
:1023600008287FF477AF6868C1033FF573AF28682A
:10237000810703D5306901287FF428AF2968706987
:1023800021F0F80141EAC0012960317808071DD524
:10239000B069DFF8041300283FF47AAF01220A6025
:1023A00002F0F4F80446686A81077FF54CAFDFF865
:1023B000DC020268D2084FF47A71B2FBF1F10091AD
:1023C00000BF0098411E00280091F9D130784107E4
:1023D00039D5E8690024C10009D4E86940F080508B
:1023E000E8610124E86900F0805000900098DFF86F
:1023F000AC82D8F80000C1051BD4D8F8000040F426
:102400008070C8F8000002F0C1F88146D8F80000DA
:10241000C1050ED402F0BAF8A0EB09006528F5D387
:1024200002E72868716920F0F80040EAC1002860DE
:10243000ABE7F06801287FF438AF3FE71CB1E869EB
:1024400020F08050E861F06948B3696801F00C0140
:1024500008293FF4BBAE02287FF469AF00F022F8F0
:102460000446286881013FF554AF306AB0F5803FDB
:1024700005D16968B06821F40031014369606A6878
:10248000306A716A22F4741202430A436A600120BE
:1024900000F009F80446286881017FF541AF00206B
:1024A000BDE8F2830020386602F070B82DE9F843E9
:1024B0007B4F05463868894600F00700484502D240
:1024C00000F086F878D128686F4C810712D5400754
:1024D00003D5616841F4E06161602878010703D5A4
:1024E000606840F4605060606168A86821F0F001A5
:1024F000014361602978C80756D56868012802D170
:1025000021688A0303E00228216802D18A0102D4EB
:1025100052E08A0750D56168890840EA810060600E
:1025200041F2893802F032F80646686801280BD17A
:10253000606800F00C00042836D002F027F8801BF9
:102540004045F5D303202DE0022837D1606800F024
:102550000C00082828D002F019F8801B4045F5D35C
:10256000F0E72878410705D56268E86822F4E06260
:10257000024362602978080706D56168286921F45A
:10258000605141EAC001616000F030F8626845497D
:102590003E4BC2F30312895CC8401860002000F073
:1025A00079F90020BDE8F283386800F00700814522
:1025B000D7D200F00DF8D4D00120F3E7606810F016
:1025C0000C0FF1D001F0E2FF801B4045F6D3B9E7D4
:1025D0003968C90849EAC1013960386800F0070064
:1025E0004845704731490120086070472E49284806
:1025F0000A6802F00C03082B00D0704710B500BF2A
:102600002EA4C2F38343D203E35C08D50968584380
:102610002EA3C1F340415A5CB0FBF2F010BD184646
:102620002349484310BD19481F4A006813682149CF
:10263000C3F3C222895CC840704710B50F22026004
:10264000194A136803F003034360146804F0F004AC
:102650008460136803F4E063C3601268D20802F474
:10266000E06202610E48026802F007020A6010BDD3
:1026700010B5114C2068010603D500F028F8802021
:10268000A07010BD00000000001002408400002077
:1026900000127A0000004242800442420070004072
:1026A0000020024010610008041002404C00424229
:1026B00000093D009462000808100240020304056E
:1026C000060708090A0B0C0D0E0F101001027047C7
:1026D0002DE9FC410646604D3078C10750D5A86908
:1026E0000024C10009D4A86940F08050A8610124E9
:1026F000A86900F0805000900098584F3868C105D4
:1027000019D4386840F48070386001F03FFF80468B
:102710003868C1050FD401F039FFA0EB0800652827
:10272000F6D303203FE001F031FFC01B40F2F5116A
:10273000884217D3F5E7E86910F440701EBF71684E
:1027400001F44071884210D04549E86901220A60CD
:10275000002320F440700B60E861C00705D501F04C
:1027600015FF0746E8698107DDD5EA69706822F43C
:1027700040720243EA611CB1A86920F08050A86150
:102780003078810705D52A68B06822F440420243B8
:102790002A603178C80605D52968F06821F48001DF
:1027A000014329600020BDE8F681000010B500213A
:1027B00001282C4C25D0022843D010284AD160682B
:1027C0002268D30146D500BF29A1C0F38342C003CC
:1027D000895C0CD5606800BF29A3234AC0F3404040
:1027E000185CB2FBF0F308461946414301E01F4A6A
:1027F0005143606842022DD449000320B1FBF0F13F
:1028000028E0206A40F202320240B2F5817F08BF20
:102810004FF400411ED000F44072B2F5007F05D1A4
:10282000606A820716D549F6404113E000F4407013
:10283000B0F5407F0ED1206882030BD54FF22441C2
:1028400008E0FFF7F0FE6168C1F38131491C4900DF
:10285000B0FBF1F1084610BD0410024000700040CA
:10286000400442420010024000127A0000093D007C
:1028700002030405060708090A0B0C0D0E0F1010C1
:102880000102000002494A68087882184A607047CD
:102890007800002018B5014687B000221920FEF705
:1028A00051FC1920FEF76BFC1448154C016841F4EB
:1028B0000061016001A9006800F4006000900098C8
:1028C00002A8FFF7BAFEFFF7AEFE0E49216040F204
:1028D000E73240000C49E260B0FBF1F0401E60605E
:1028E00000222261A260204600F01CF918B920469F
:1028F00000F02EF900E0012008B010BD18100240D1
:10290000F8260020002C014040420F0080B51048FE
:10291000016841F001010160026802F001020092C9
:102920000099426842F0805242600022406800F004
:10293000805000900F2100986FF00100FEF702FC1C
:102940000448016821F0E06141F00071016001BDBF
:1029500018100240040001402DE9F843024600200F
:102960000025634BDFF88C9101270E68AF403E4095
:10297000BE4240F0AC804C686CB3012C20D0022CDD
:1029800023D0032C32D0112C1CD0122C20D0DFF8F5
:1029900068E174451CBFDFF864E174451BD0DFF8C3
:1029A00060E174451CBFDFF85CE1744513D0DFF8CB
:1029B00058E174451CBFDFF854E174450BD016E0B4
:1029C000C86814E0C868001D11E0C86808300EE04F
:1029D000C8680C300BE0886808B9042007E00128BB
:1029E00019BF082057610820176100E00020B6F5E4
:1029F000807F03D294464FEA850E05E0A5F10804D6
:102A000002F1040C4FEA840E0F27DCF8008007FA6D
:102A10000EF428EA040400FA0EFE4EEA0404CCF890
:102A200000404C68E40052D5D9F80040DFF8E0E0FF
:102A300044F00104C9F800404FEA950CD9F8004071
:102A400004F0010400944FEA8508009C5EF82C40D5
:102A500008F00C0807FA08F724EA07072D4CA242F1
:102A600008BF00240ED02C4CA24208BF012409D07C
:102A70002A4CA24208BF022404D0294CA2420CBF17
:102A80000324042404FA08F427434EF82C70F74377
:102A90004C68E4031C684CBF34433C401C604C68E9
:102AA000A4035C684CBF34433C405C604C68E40267
:102AB0009C684CBF34433C409C604C68A40203D5E6
:102AC000DF683E43DE6002E0DE683740DF606D1C99
:102AD0000F2D7FF649AFBDE8F1838068084018BF2D
:102AE0000120C0B2704702B90904016170470000BB
:102AF00000040140181002400000111000001210E4
:102B000000002110000022100000311000003210DF
:102B10000800014000080140000C01400010014085
:102B20000014014038B5040001D1012032BD00F08D
:102B300058F818B900F051F8FFF70EF81DE002211F
:102B400080F83D1001680A6842F001020A600FE057
:102B50000068C16841F00101C160026842F00102F1
:102B600002600020704703D10A68520852000A60D0
:102B7000012180F83D100020704702206870211D5F
:102B8000206800F0E2F901206870002032BD38B5FD
:102B9000040001D1012032BD00F023F818B900F083
:102BA0001CF8FEF7BDFFE8E710B500F01EF801E0E5
:102BB00000F01FF800F0CBFA2068DFF878108842A8
:102BC00005D1DFF874100A6842F400420A60016817
:102BD00041F001010160002010BD00212970204654
:102BE000704704F13C05687870470446012220686C
:102BF00070470446080006D0042909D008290CD0E3
:102C00000C290FD013E02068C26842F002020DE0E8
:102C10002068C26842F0040208E02068C26842F0FE
:102C2000080203E02068C26842F01002C260206817
:102C300001227047002C0140442C014010B504468D
:102C4000206801698A0715D5C1688A0712D56FF017
:102C50000201016101222277806910F0030F2046F2
:102C600002D001F099FC03E001F097FC00F087F836
:102C700000202077206801694A0715D5C1684A07F6
:102C800012D56FF00401016102222277806910F4ED
:102C9000407F204602D001F07FFC03E001F07DFC84
:102CA00000F06DF800202077206801690A0715D52B
:102CB000C1680A0712D56FF008010161042222776A
:102CC000C06910F0030F204602D001F065FC03E05C
:102CD00001F063FC00F053F80020207720680169C0
:102CE000CA0615D5C168CA0612D56FF01001016178
:102CF00008222277C06910F4407F204602D001F0FC
:102D00004BFC03E001F049FC00F039F8002020778B
:102D100020680169CA0708D5C168CA0705D56FF0E0
:102D2000010101612046FEF7B6FB206801690A0631
:102D300008D5C1680A0605D56FF0800101612046FB
:102D400001F02CFC206801694A0608D5C1684A06D2
:102D500005D56FF040010161204601F020FC20689C
:102D600001698A060AD5C1688A0607D56FF0200175
:102D700001612046BDE8104001F012BC10BD2046A4
:102D800001F00FBC70B500F063F801D1022070BDF6
:102D900000F065F832B1042A17D0082A28D00C2A8E
:102DA00039D04AE03068294600F0FEF83068816981
:102DB00041F0080100F048F821F004018161316818
:102DC0008A69286902438A6137E03068294600F041
:102DD00010F93068816941F4006100F035F821F4A0
:102DE000806100F031F82A6941EA0221816124E022
:102DF0003068294600F026F93068C16941F00801C1
:102E000000F01EF821F00401C1613168CA69286927
:102E10000243CA6111E03068294600F03BF930688E
:102E2000C16941F4006100F00BF821F4806100F009
:102E300007F82A6941EA0221C16100F015F870BD66
:102E4000C1613068C16970478161306881697047CC
:102E5000064606F13C040D46207801287047012003
:102E60002070022161707047012060700021217084
:102E70000020704738B500F05CF801D1022032BD67
:102E80000120207002226270DFF848022A689368ED
:102E9000034093600A68002A37D0102A37D0202ACE
:102EA00037D0302A37D0402A2BD0502A1ED0602A63
:102EB00020D0702A0BD0B2F5805F03D0B2F5005F4E
:102EC0000CD02CE028688168C908C9000CE000F02B
:102ED0002BF82868816841F0770105E000F024F8BC
:102EE0002868816841F48041816018E000F018F89A
:102EF000502111E0CA684968286800F004F960218F
:102F00000AE000F00DF8402106E0002104E0102165
:102F100002E0202100E03021286800F006F90EE0F0
:102F2000CA6849682868DFE0CB684A688968286809
:102F300003E1054605F13C04207801287047012093
:102F4000607000212170002032BD70B5624E0368B0
:102F5000624C634DB04218BFB0F1804F03D0A8421D
:102F600018BFA04209D14A6823F070031343B0424E
:102F70001CBFB0F1804FA84201D0A04203D1CA6863
:102F800023F4407313434A6923F08003134303601F
:102F9000B0428B68C3620A68826202D10969514AF1
:102FA00011600123436170BD70B5026A520852007E
:102FB0000262066A446885690B688A6825F07305B1
:102FC0001D4326F002061643434B98420BD1CA68B4
:102FD0004B6926F0080624F4407416438A691C43A2
:102FE00026F0040614434460856149684163066223
:102FF00070BD70B5026A384E22F010020262B04213
:10300000056A436884690A6824F4E64444EA0224B1
:103010008A6825F0200545EA02150DD1CA684E6977
:1030200025F0800545EA02158A6923F440631643BA
:1030300025F0400543EA8603436084614968816363
:10304000056270BD70B5026A22F480720262056A80
:103050004368C4690A688E6824F0730414431E4AE6
:1030600025F40075904245EA06250DD1CA684E69DF
:1030700025F4006545EA02258A6923F44053164386
:1030800025F4806543EA06134360C4614968C1635F
:10309000056270BD70B5026A0F4E22F48052026262
:1030A000B042046A4268C3690D6823F4E64343EA08
:1030B00005238D6824F4005444EA053404D14D6995
:1030C00022F4804242EA85124260C3614968016489
:1030D000046270BD8800FFFF002C01400008004022
:1030E00000040040302C014010B5036A046A6408F3
:1030F0006400046223F00A03846924F0F00444EAC3
:10310000021484612CE010B5036A23F010030362FB
:103110008369046A23F4704343EA023324F0A00471
:10312000836144EA0114046210BD826822F07002D7
:10313000114341F007018160704710B5846824F4A1
:103140007F442143114341EA0321816010BD10B542
:10315000036A01248C40A343036202FA01F1036A6B
:103160001943016210BD000030B500F13C031A782C
:10317000012A01D1022030BD01221A7002245C70A4
:103180000268546824F070045460046865680A6832
:10319000154365600268946824F0800494600268B6
:1031A00094684868044394600121597000201870A5
:1031B00030BD10B5040001D1012010BD0021A16275
:1031C00094F8510010B92046FEF776FD022084F8ED
:1031D00051002068016821F0400101606268A16827
:1031E000E06823680A432169024360690A43A169D0
:1031F000024301F40071E0690A43216A0243A06AB4
:103200000A4302431A60A169606A2268090C01F04E
:103210000401014351602168E06A08612068C169C6
:1032200021F40061C16100206065012184F8511022
:1032300010BD000010B504003FD0607C20B9002113
:1032400021742046FEF7BCFD02206074204600F089
:1032500075F980BB204600F0CDF960BB206841685D
:10326000C908C9004160A068DFF8C81218B14868F1
:103270004008400048600A68A06822F46072024377
:103280000A60606810F1010F04D10120FFF78EFA87
:1032900088B1401E21688A681209120142EA104270
:1032A0008A6080B22168CA68120C40EA0240C86095
:1032B00000F084F918B104206074012010BD0121D0
:1032C000E0736173A1736174002010BD2DE9F041BA
:1032D00004000D4618BF002D37D0207C012808BF00
:1032E000022036D000F0E9F83C272E784FF46168D0
:1032F0001AB96978A8784F430AE0304600F0B7F968
:103300000646687800F0B3F94743A87800F0AFF9B3
:1033100008FB067686193146204600F03DF990B943
:103320002068416821F005014160204600F048F91D
:1033300010F1010F0BD0B04209D2DFF8FC110918CF
:1033400000F0C1F818B100F0E9F8012001E000F048
:10335000EAF8BDE8F0812DE9F84304000E4618BFF5
:10336000002E914645D020684168480741D4204648
:1033700000F001F907464FF46160B7FBF0F1024637
:1033800002FB11723C233C20B2FBF3F300FB13223F
:1033900018297370B2702ED31822B1FBF2F802FB19
:1033A00018113170204600F00BF910F1010F03D015
:1033B000874238BFC51B01D34FF0FF35DFF87801D6
:1033C00000FB18773946204600F0E6F888B915F179
:1033D000010F08D0791900F076F850B9414620461F
:1033E00000F04DF908E04FF0FF3100F06CF80028D4
:1033F000F4D0012010E03170B9F1000F0BD030781B
:1034000000F02AF93070707800F026F97070B0780A
:1034100000F022F9B0700020BDE8F28370B504001E
:103420000D4618BF002D43D0207C012801D1022079
:1034300070BD00F042F8E8782AB9E07368786073EC
:10344000A978A1730AE000F012F9E073687800F03F
:103450000EF96073A87800F00AF9A073A27B617B73
:10346000E07B00F062F920732870204600F083F8BA
:1034700005464FF46160B5FBF0F018281AD9182101
:103480002D4EB0FBF1F006FB10552946204600F00A
:1034900083F858B9204600F093F810F1010F09D0D5
:1034A000A84207D2311800F00EF818B100F036F833
:1034B000012070BD00F037F870BD0120207402219A
:1034C000617470473946204682E07CB504000FF2F3
:1034D000AC200D460168009118BF002D164605D09E
:1034E000002269462046FFF736FF08B1012076BD6D
:1034F000207B2870E07BE870617B6970A27BAA70FA
:1035000056B100F0A9F8E870687800F0A5F8687086
:10351000A87800F0A1F8A870002076BD042060749F
:103520000021217470470120607400212174002063
:10353000704700002C6C00408051010038B5040039
:1035400001D1012032BD00F010F801F01FF805464E
:1035500020684168080706D401F018F800F060F808
:10356000F6D3032032BD002032BD2068416821F02F
:1035700008014160704701688A69C8698B6992B225
:103580009BB29A4204D0C86980B240EA03407047B7
:1035900080B240EA0240704770B504460D4600F024
:1035A00029F8002638B92068290C8161ADB2C561BF
:1035B00000F004F800B10126304670BD204634E02A
:1035C0000068016A406A89B280B240EA01407047EF
:1035D00070B504460D4600F00DF8002638B9206895
:1035E000290C0162ADB24562FFF7E8FF00B1012688
:1035F000304670BD38B5044600F0C8FF0546206867
:1036000041688A0606D400F0C1FF00F009F8F6D33D
:10361000032032BD416841F010014160002032BDFD
:10362000401B40F2E9318842704738B504462068B3
:10363000416821F01001416000F0A8FF05462068B4
:103640004168880606D400F0A1FFFFF7E9FFF6D332
:10365000032032BD002032BD002101E0491C0A38A0
:10366000C2B20A2AFAD240EA0110C0B27047010978
:103670000A2200F00F0002FB0100C0B27047F8B54B
:103680000646F37B747BB57B0A46002721E01D2D9F
:103690001ED1641C01251BE0022C19D11C2D16D350
:1036A000F5D113F0030FF4D199B26420B1FBF0F01F
:1036B0004FF0640C0CFB101048B94FF4C870B1FB0C
:1036C000F0F04FF4C87C0CFB10110029E1D16D1C07
:1036D0007F1C97421FD2012C18BF032C08D0052C49
:1036E00018BF072C04D0082C1CBF0A2C0C2C07D1A7
:1036F0001E2DECD90C2CCCD1012401255B1CE7E755
:10370000042C18BF062C03D0092C18BF0B2CC3D1D6
:103710001D2DBED8DBE7F3737473B573EAB2E1B263
:10372000184600F002F83073F1BD10B517234B4373
:103730000924B3FBF4F400F5FA6012198218032986
:1037400003D2401E00F00CF802E000F009F8921ECF
:103750000724B2FBF4F4C4EBC404121BD0B210BDB6
:1037600002EB90026421121DB0FBF1F14FF4C8731B
:10377000521AB0FBF3F082187047000000000000FE
:10378000054800EB810092B202607047024800EBEE
:103790008100006880B27047006C00400249FFE77A
:1037A000012008607047000020000E42F8B5044672
:1037B00000270026002C71D004F12405686820B988
:1037C000AE6028702046FEF743FB204600F052FA18
:1037D0006968CA065ED401005CD1696821F4885129
:1037E00041F0020169606368E269E1681343A2681D
:1037F000B2F5807F14BF012A4FF480776269012AF5
:1038000043EA41030FD131B9A169491E490341F48B
:1038100000610F4307E0696841F020016960A96811
:1038200041F00101A96021684A6822F46942174306
:103830004F602268DFF8041497680F401F439760B9
:10384000A168B1F5807F18BF012902D12669761ED3
:1038500036052168CA6A22F470021643CE622468D3
:10386000DFF8DC13A2680A409A4208D10023AB605B
:10387000696821F0020141F001016960F2BD6868E8
:1038800020F0020040F010006860A86840F00100DD
:10389000A86003E0686840F0100068600120F2BD95
:1038A00070B500F025F801D1022070BD00F0EFF8EE
:1038B00001001CD16A68DFF88C1300F0D5F80DD137
:1038C0000E6816F4702F09D000F0C0F86B68DE04A3
:1038D00046BFAB6823F00603002305E000F0A8F81C
:1038E000F4D500F0ACF8F1E700F0C9F8D3E09CE0C3
:1038F000044604F124052878012870472DE9FC418D
:103900000546002000900C4600F040FE80462868E6
:103910008168CA0505F1240707D5786840F02000C2
:10392000786000213970012075E04168CA0513D420
:10393000C06A10F4700F0FD1286801688A074FD44D
:1039400014F1010FF8D0002C67D000F01FFEA0EB9F
:1039500008008442F0D260E00220FEF727FF2968C9
:10396000DFF8E4E20E69DFF8E422DFF8E43216EA79
:103970000E0F02BFCE68DFF8DCE216EA0E0F07D1A9
:103980000E691E4205BFC96811422926142610E09F
:103990000E691E4204BFCB68134207D00B69DFF8E3
:1039A000B822134204BFC968114201D1542600E075
:1039B000FC26DFF8A8120A68B2FBF0F04643009933
:1039C000B1420DD214F1010F06D034B300F0DEFD88
:1039D000A0EB0800844220D30098401C0090EEE742
:1039E00029686FF0120008607A6842F400727A6009
:1039F000286800F066F804BFE86800280AD17868F3
:103A000020F4807078607868C10403D4786840F04E
:103A1000010078600020BDE8F6810021786840F060
:103A20000400786039700320F5E70021297070BD2B
:103A30006E6826F480166E605B685E0570476B6882
:103A400023F4005343F480536B6070476B6843F476
:103A500080136B600E68730505D56E6826F40056FA
:103A600046F480566E6070470A4042F480726A6085
:103A70002368DFF8EC21DFF8EC1193427047AB606C
:103A800000262E706FF0020325682B60704701201E
:103A9000287020469CE023689C6804F46024B4F5F8
:103AA000602F09D1934203D1096811F4702F03D11B
:103AB000996841F4A00102E0996841F4801199608D
:103AC00070BD816801F46021B1F5602F7047006816
:103AD000C06C7047F8B50A46002100F1240300913C
:103AE0001C78012C01D10220F2BD01241C701F277B
:103AF000546815680668072C08D2641E04EB840419
:103B0000D6F834C000F05EF8756312E00D2C08D2D0
:103B1000E41F04EB8404D6F830C000F053F835639A
:103B200007E00D3C04EB8404D6F82CC000F04AF802
:103B3000F56207271668946805680A2E08D30A3EBE
:103B400006EB4606D5F80CC000F036F8EC6006E04F
:103B500006EB4606D5F810C000F02EF82C6114686C
:103B6000102C18BF112C23D100683F4CA0421AD151
:103B70003E4805682C021BD4056845F40005056025
:103B80001068102814D1354A394D1468B4FBF5F586
:103B90000A2045430095009800281EBF0098401E4B
:103BA0000090F8D104E00121586840F020005860EE
:103BB000002018700846F2BDB7402CEA0707B44051
:103BC0003C437047A7402CEA0707A5403D43704798
:103BD00038B504460020009020688168CA072AD4BE
:103BE0008168234A41F0010181601C480168B1FBF2
:103BF000F2F2009202E00098401E00900098002827
:103C0000F9D100F0C3FC054620688168C80712D4CA
:103C100000F0BCFC401B0328F6D304F12400002272
:103C2000416841F010014160816841F0010181600B
:103C30000270012032BD002032BD0000FDF7E1FF1F
:103C4000FE0E1FFFFEFDFFFF24499224922449002F
:103C500092244912244992004992240084000020B1
:103C600000280140042401400024014008240140B0
:103C700040420F0038B5044620688168CA0719D54C
:103C8000816849084900816000F080FC0546206891
:103C90008168C8070ED500F079FC401B0328F6D3D5
:103CA000A06A40F01000A062E06A40F00100E0620B
:103CB000012032BD002032BD10B5040001D1012029
:103CC00010BD607920B9002121712046FEF7FCF873
:103CD00001206071002010BD10B5094C0949002277
:103CE0002046FDF761FA08492046FDF770FA0749BA
:103CF000204600F031FD2046BDE81040FDF76FBAC8
:103D0000301F0020A802002094010020980200200B
:103D10007D480021C0E90011704738B57B4A52F850
:103D200030301C6802EBC0004568084600F03CFDDE
:103D3000774A784B00F05CFD00F07EFEAD0804EBA6
:103D4000850400F0ADFE606331BD0A2900D37047E1
:103D50000B22714B504310B5184408446A4A40780E
:103D6000810800EB5171C9080124535CA0EBC1002C
:103D70000DE010B50B21684A48430124105C624AEB
:103D8000830800EB5371C908A0EBC100535C04FA2F
:103D900000F01843505410BD5B480121D0E90023C6
:103DA000C0E902238175704710B5574CE0690822BD
:103DB00004F1080100F086FE0021A17510BD0F2856
:103DC000A8BF0F2002DA010008BF01204E498882F7
:103DD00070474D490861704738B50146032489B2E0
:103DE0000A2291FBF2F502FB151149B2E0B2641E02
:103DF00000F01AF822B2002A2946F0D531BD38B5B4
:103E00004649474C51F82000E06021460C22FDF75E
:103E1000EFF8E06801690025858119B12046BDE809
:103E20003440084731BD704710B53D4B1C1822790E
:103E30000AB14FF0FF31195410BD394A10440172D4
:103E4000704738480021016070474A1E344992414A
:103E50000844D20F027170472DE9F041DFF8A880C5
:103E60002F4D15E02E461EE0FCB2F8B23157FFF799
:103E70006CFF3019007A10B1F8B2FFF77AFF7F1C9F
:103E8000F8B20428F0DBFFF787FF0A20FEF776F987
:103E9000E86840B18189491C818141690029E1D0EC
:103EA0002846884706460020C8E900000027DBE7CF
:103EB00038B5154C206A002100F090FF03D1A07D99
:103EC00008B1FFF771FF208BA38A0146401C2083B5
:103ED0000022112091FBF0F000EB0010091A8B4238
:103EE000A8BF2269216A104600F078FF09D022623B
:103EF0000025216AE8B2FFF710FF6D1CE8B2042824
:103F0000F7DB31BD00000000180100203C0100205B
:103F100092CB7F48BF7D6D3F5C0100205C0000209C
:103F200078280020802800202DE9F843064617460F
:103F300084B088469946B80000F05EFF05001AD0AC
:103F4000542000F059FF040012D00D990C982563FD
:103F5000002203920191009002944B463A4641465A
:103F6000304600F00DF8204600F046F8012004E04D
:103F7000284600F0CAFF4FF0FF3005B0BDE8F083DF
:103F80002DE9F0470A9E8146306B00EB8202101F3C
:103F9000C0084FEAC00A00228C5CB01880F8344098
:103FA000885C10B1521C102AF6D3089D002086F8B8
:103FB0004300062D099C88BF062506F14407F562DB
:103FC0003D6078609846301D00F0FDFF06F1180056
:103FD00000F0F9FF3661C5F10705B5617662002092
:103FE000B860387342464946504601F027F83060C1
:103FF00004B12660BDE8F0872DE9F04100F08FF8AC
:10400000DFF8D054DFF8D084E86C401CE864142654
:10401000A86A28BBAC62E86C012827D1002706FB00
:1040200007F0404400F0C2FF7F1C072FF7D305F1D3
:10403000740000F0BBFF05F18807384600F0B6FFBA
:10404000284600F0B3FF05F1140000F0AFFF05F1C2
:10405000380000F0ABFF05F17400E8622F6305E063
:10406000A86D18B900F08EF828BFAC62A86E401C8D
:10407000A8660122E06A696D824011436965464382
:10408000211D08EB060000F0A1FF01F040F8A86D2B
:1040900008B100F010FABDE8F08138B500F03FF843
:1040A00000F051F800F03EF808B100F0F2F8A86E08
:1040B000401CA866A86A844208D1211D05F114009D
:1040C00000F084FF686B401C686307E0E86C401EEA
:1040D000E864204600F0CDF900F0D5F901F017F8BA
:1040E000A86D20B1A96A8C4201D100F033F831BD2E
:1040F00080B588B1DFF84C24116F21B100F03EF893
:1041000000F058F9FEE7116F491C1167002100F01B
:10411000E5F900F071F808B900F047F901BD04466F
:1041200000F0DCBF68B9E16ADFF81C2414234B43BC
:10413000D05830B9686D012202FA01F120EA01017C
:104140006965A06A7047DFF8FC5304B9AC6A201DAA
:1041500000F062BF286F38B1502181F31188BFF39E
:104160004F8FBFF36F8FFEE7DFF8E0134FF0805003
:104170000860BFF34F8FBFF36F8F7047502080F3FD
:1041800011887047E06AA96ACA6A90427047211D87
:1041900014204243981870473EB5DFF8A8430FF249
:1041A000B03104F19C00019000250095002380228D
:1041B0000FF26920FFF7B8FE502101280ED181F3DC
:1041C000118800F0F7F84FF0FF30E0660121A1659B
:1041D0002565BDE8374000F04FBF37BD10F1010F36
:1041E000FBD181F3118800F0E5F8FEE7DFF8540316
:1041F000016F491C0167704770B5DFF84863306F85
:104200000024002528B9502181F3118800F0D2F84C
:10421000FEE700F063FF306F401E3067306F00280C
:1042200036D1F06CD8B933E0F068C46800F031F8EA
:1042300000F037F9E06A716DDFF80C33012282403B
:104240001143716514225043211D184400F0BEFE35
:10425000E06AB16ACA6A904224BF012131663068BF
:104260000028E1D10CB100F00EF9F46D3CB100F082
:1042700014F808B101203066641EF8D1F565306E7F
:1042800030B1DFF8C8124FF08050012500F091F8EE
:104290000AE104F1180000F0BFBE2DE9F843DFF891
:1042A000A472386F002600284FD13C6D641C3C6519
:1042B00011D1F96A086828B1502181F3118800F002
:1042C00079F8FEE7F86A396BF9623863786E401C5A
:1042D000786600F0D8F8F86EDFF86C9284424FF000
:1042E000140825D31AE0281D00F096FEA86A18B11C
:1042F00005F1180000F090FEE86A796D0122824015
:104300001143796508FB00F0291D484400F05EFE6A
:10431000E86AB96ACA6A904228BF0126F96A086841
:1043200080B1F86AC168CD6868688442DBD2F866FB
:10433000B86AC16A08FB01F059F80020022A07D3C5
:10434000012605E04FF0FF30F1E7F86D401CF865FD
:10435000386E00B10126ABE0DFF87821106F10B1A4
:1043600001211166704710661421506DB0FA80F378
:10437000C3F11F034B43DFF8D011C85838B950219F
:1043800081F31188BFF34F8FBFF36F8FFEE7C8181B
:1043900000F10803416849684160994204BF4968D7
:1043A00041604068C16891627047DFF8A0114FF02A
:1043B00080500860BFF34F8FBFF36F8F704738B5E1
:1043C000C068C46824B9FFF7D9FEFFF7F3FFFEE722
:1043D000FFF75FFFDFF8FC50286F60B900F061F86D
:1043E000E26A686DDFF86031012191400843686539
:1043F000FFF7CDFE02E004F11801284600F0E6FDCB
:1044000000F004F800D206E0002032BDA86AC16ABC
:10441000E06A814270470120286632BD70B5DFF83E
:10442000B840DFF820511BE0286F401C28676869FE
:10443000461EB641FFF7E0FEF60F8EB900F04EFEC5
:10444000286AC668301D00F0E7FDE86C401EE8648D
:10445000686B401E686300F05AFE304600F009F8B1
:10446000686B0028E0D121680129F9D9FFF79DFF89
:10447000F6E710B50446206B00F047FD2046BDE886
:10448000104000F042BDDFF8BC10CA6A106810B9D5
:104490004FF0FF3203E0C86AC268D0684268CA665B
:1044A0007047201D00F0B8BD00F031FE284670BDF9
:1044B0003046BDE8F283A86AC16AE06A814207D249
:1044C000224A4FF080511160BFF34F8FBFF36F8FBF
:1044D000704700007425002014260020F8B5194DFF
:1044E0002F6D0C46A96A0646081D00F095FD30B9EF
:1044F000A86A696DC06A012282409143696516F11C
:10450000010F08D13CB1A86A011D05F13800BDE8D2
:10451000F44000F05BBDA86AF6194660BE42A86A86
:1045200005D2011D286BBDE8F44000F05CBD011D03
:10453000E86A00F058FDE86E864238BFEE66F1BDCD
:1045400000000000742500201426002004ED00E087
:1045500049444C450000000000B500BF13009646DA
:104560009446103928BFA0E80C50FAD85FEA417C85
:1045700028BF0CC048BF40F8042BC90728BF20F84B
:10458000022B48BF00F8012B00BD00000148406825
:10459000704700BF78000020704770477047704731
:1045A0007047704770B506460025307C30B94FF42F
:1045B000007300F031F84FF4007303E0402300F083
:1045C0002BF84023022201213046FCF789F9082309
:1045D000032282213046FCF783F94FF40770FCF781
:1045E000EFF9040006F5067008BF0125046011D03C
:1045F00040680168884704F50170056145610268FB
:10460000307C00280CBF4FF400734023012130465A
:10461000FCF7C5F9284670BD022281213046FCF71F
:104620005FB910B504468121FCF76AF901212046E3
:10463000FCF766F982212046FCF762F904F506745E
:10464000206838B16068416888472068FCF7C4F981
:1046500000202060002010BDF8B50D46044604F58A
:10466000067329781E6811F060001ED0202824D11E
:10467000EA88A2B16878090606D55B689F6831466A
:10468000B847EA88314615E006F500710870E888F9
:1046900048703146EA882046FDF725F90DE05B6851
:1046A00068789C682946A04707E068780A2804D102
:1046B000012224492046FDF706F90020F2BDD0F87A
:1046C000180220B10021C0F8141200207047022007
:1046D000704770B500F50674256805F50176FCF79E
:1046E0006BF9B060206838B162683068D36805F54E
:1046F00003719847002070BD022070BD10B500F511
:10470000067043680168002B1EBF01F50074207815
:10471000FF2804D062789B689847FF202070002013
:1047200010BD43210180084870474321018007489C
:10473000704743210180064870470A2101800548DF
:10474000704700009C28002010020020CC010020AF
:1047500054020020880100200246022011B1C2F854
:104760001C1200207047D0F8180200F5027001609A
:10477000826000207047D0F81802C0F804120020B0
:10478000704780B5D0F8181261B1D1F80422017CCD
:1047900000290CBF4FF4007340230121FCF7FFF800
:1047A000002002BD022002BDC0F3C75181B1FF2924
:1047B00006D0C110400721F0E04101F1605170477F
:1047C00041020CBF40F4E0016FF00041002070474F
:1047D00000F0004100020AD0B0FA80FC00FA0CF0B0
:1047E00001F16051A1EB0C5101EBD0214005704764
:1047F000F0B540F2FF7581EA030C0CF0004C15EAAD
:1048000011541DBF15EA1357AC42AF42E5E0BC415D
:10481000C1F31301C3F31303801A994143F48013C6
:1048200004D2641E4000494180185941C90241EA3E
:104830005051B1FBF3F603FB1611A2FB0675D7EB43
:10484000C020A94102D2761E80185941C90241EA0E
:104850005051B1FBF3FE03FB1E11A2FB0E75D7EB0B
:10486000C020A94103D2AEF1010E8018594189023E
:1048700041EA9051760546EA8E2EB1FBF3F603FB32
:104880001611A2FB0675D7EB8020A94102D2761E35
:1048900080185941C90241EA50514EEA060EB1FB57
:1048A000F3F603FB1611A2FB0675D7EBC020A94156
:1048B00002D2761E80185941C90241EA5051B1FB1B
:1048C000F3F703FB1711A2FB0735D3EBC020A94177
:1048D00067F100070CBF004247F0010766F3D527D8
:1048E0004FEA1E31B80814F5806412DDBD0775F17A
:1048F000004250EB0E5051EB045111F5801F5CBF8C
:1049000041EA0C01F0BD4CF07F6141F0E041002034
:10491000F0BDBD076D0840EA0E5041F48011D4F19E
:104920000104B4F120060ADAC4F120060200E040D6
:1049300001FA06F3E1401843B24015430EE0342C6F
:1049400013DCC6F1200445EA40056D0820FA06F2A2
:10495000154321FA06F0A1400D43002175F10042F4
:1049600050F1000051EB0C01F0BD00205FEA0C019A
:10497000F0BDCFB992185B41B3FA83F704BFB2FA26
:1049800082F6BF190B3FB7F120062FBF02FA06F3DC
:10499000BB40C7F1200622FA06F638BF3343BA40BF
:1049A0001CB1E419641E33E77F4231F00041B1FAD3
:1049B00081F404BFB0FA80F6A4190B3CB4F12006D0
:1049C0002FBF00FA06F1A140C4F1200620FA06F636
:1049D00038BF3143A0403C1B1AE7AC421ABF05EA7E
:1049E0001357AF4212E050EA41061CBF52EA430699
:1049F000BFE750EA4107304661461CBF41EA055116
:104A0000F0BD52EA430C08BFC143F0BD00204FF493
:104A1000001616EB410F98BF16EB430F08BF16EBBD
:104A2000410F24BFC14305E016EB430F0CBF6146A5
:104A30004CEA0551F0BD000001F000428B1AA3F1D1
:104A40006051B1F5801F0ADBB1F17F6F1FD242EADE
:104A5000C102C10071F1004142EB507070470B156B
:104A6000C3F10903212B10D2890241EA905180023F
:104A70000128494141F0004121FA03F0C3F120032C
:104A8000994071F1004150417047100070476FF03C
:104A9000000013EB103F5CBF000E42EAC0507047AD
:104AA00000180CD2010E7F3909D4D1F11F015DBF6E
:104AB000C00140F00040C8406FF000007047002087
:104AC0007047000030B500F1500400232578012D17
:104AD00001D1022030BD0125257009B1150001D199
:104AE00001232BE06578012D18BF022326D1032571
:104AF0006570636001638286C28683638387C38730
:104B00000364C168002919BF0FF2651242640FF2F5
:104B1000411141648168B1F5004F04D101680A6810
:104B200042F480420A608168002901684A680CBF2B
:104B300042F0800242F0A00200F004F80020207051
:104B4000184630BD4A60006801684A0603D401680F
:104B500041F0400101607047016821F040010160AF
:104B600070477CB5044621684A688B6803F04100B1
:104B7000012806D1500604D5216C2046BDE87C40B2
:104B80000847980706D5150604D5616C2046BDE890
:104B90007C40084713F0600F4DD090064BD55D0662
:104BA0000ED594F8510003283BD0606D40F004000E
:104BB000606500250095CE6800968D680095009888
:104BC0009B060CD5606D40F00100606500230093EA
:104BD0008D680095086820F0400008600099606DBD
:104BE00048B32068416821F0E0014160012012F0E3
:104BF000030F84F8510019D020680FF2490541686D
:104C0000890889004160E06C18B14563E06C00F0F0
:104C1000DFFAA06C78B14563A06CBDE8764000F087
:104C2000D7BA0020009000F007F873BD2046BDE819
:104C3000764000F02BBB73BDCA6800928968009172
:104C400000987047406A0021C187C18600F01EBBF2
:104C5000016B4A1C0263036809781973C18E4A1EEE
:104C6000C286C18E002908BF00F074B870470000EA
:104C7000016B03680A88DA60016B8A1C0263C18ECB
:104C80004A1EC286C18E002908BF00F063B8704773
:104C90002DE9F041069F05460E4690461C462868C1
:104CA00081683140B1420CBF01200020404532D024
:104CB00014F1010FF3D024B1FFF768FCC01BA04230
:104CC000EDD32868416821F0E00141606868B0F5E3
:104CD000827F09D1A868B0F5004F18BFB0F5806F8A
:104CE00002D12868FFF738FFA86AB0F5005F0AD143
:104CF00029680A684DF6FF7002400A60286801685A
:104D000041F40051016005F1500001214170002281
:104D10000270032000E00020BDE8F0811CB5009285
:104D20000B46044600228021FFF7B2FF10B100F0CD
:104D300006F8032016BDBDE8164000F0A7BA606D66
:104D400040F020006065704718B1606D40F02000B1
:104D5000606570471CB500F030F802460098411EAF
:104D60000091C0B1206881688807F7D52068416844
:104D700021F0A001416020466421FFF7CFFFFFF73B
:104D8000E3FF00F00FF8012184F85110606D002856
:104D9000204603D0CFE7FFF7D2FFE7E7BDE8164094
:104DA00000F075BAA06838B9002100912168CA687E
:104DB000009289680091009870470446064801688F
:104DC0001822B1FBF2F24FF47A73B2FBF3F36420D2
:104DD00043430093FFF7DABB8400002040EA010C54
:104DE0001CEB0C0F07D0884205D14FEA400C1CF198
:104DF000807F98BF804270472DE9F8430446FFF753
:104E0000F5F9694FB8684FF00009002508BB07F1B4
:104E1000180307F1180113F0070F4FF480500A46EA
:104E200005D0CA1DD208D200C2F5805008188018DB
:104E30000838C008C0003A607D60B8604560056011
:104E4000831A5360106050683861F8604FF000407A
:104E500078614FF050087869044233D194B3083434
:104E600014F0070F1FBF04F1080004F00704041B2F
:104E700014F0070F02D000F041F8FEE714B3F86811
:104E8000A0421FD33E6839467068A04223D23068E2
:104E900000281CBF31460646F6D11CE0301D0251E9
:104EA0007460084600F05BF87168F8683A69401A67
:104EB000F860904238BF38617869014371603560AD
:104EC00009F00705FFF798F915B100F017F8FEE7AC
:104ED0004846BDE8F283B8688642F3D00A68306875
:104EE000086002F108097268121B112ADCD331191B
:104EF00011F00700D2D000F001F8FEE788F3118826
:104F0000BFF34F8FBFF36F8F7047002800D17047FA
:104F100038B5A0F10804244D61686A695023114234
:104F200002D100F015F8FEE7206810B100F010F88B
:104F3000FEE791436160FFF759F9E968606841183D
:104F4000E960204600F00BF8BDE83140FFF754B9A6
:104F500083F31188BFF34F8FBFF36F8F704730B566
:104F600011490A4600E01A4613688342FBD353688E
:104F7000D418844203D14068C31853601046436874
:104F80001468C518A54208D189688C4204D06168AC
:104F9000CB184360246800E00C460460824218BFCE
:104FA000106030BD00000000DC0200204FF0FF3236
:104FB00000F1080182604160C16000F108020261F5
:104FC00000210160704700210161704710B54268FF
:104FD0004A6093688B6094686160916008610168C1
:104FE000491C016010BD30B50A6812F1010F08BFFD
:104FF000036907D000F1080300E023465C682568D8
:10500000AA42FAD25A684A6091608B60596008617E
:105010000168491C016030BD4368016982689A607B
:10502000836842685A604A68824204BF83684B6062
:10503000002202610868401E08607047490810B5E8
:105040004900A0F10C034FF0807459609C600FF28E
:105050000D01196040F8202D203810BD49494A68DB
:10506000502012F1010F80F31188BFF34F8FBFF36F
:105070006F8F00D0FEE7FEE71CB543490A78019226
:10508000FF230B700C788DF800409DF800003D4C1C
:1050900000F050002070072005E09DF8002052002D
:1050A000401E8DF800209DF800201306F5D4000264
:1050B00000F4E060A060019808703448016841F491
:1050C00070010160026842F07042026000F070F806
:1050D0000020606000F00FF9002016BD502080F322
:1050E0001188BFF34F8FBFF36F8F26494A68521C58
:1050F000012A4A600AD126490A68130606D080F3BD
:105100001188BFF34F8FBFF36F8FFEE770471D49C4
:10511000486838B9502080F31188BFF34F8FBFF330
:105120006F8FFEE7401E486008BF80F3118870470C
:1051300080B5502080F31188BFF34F8FBFF36F8F7E
:10514000FFF7ABF818B112494FF080500860002209
:1051500082F3118801BD000010B5EFF305805021E6
:105160001028084A05D30B4B185C1478A04200F0B5
:1051700015F89068084A136803F4E063984200F059
:105180000DF810BD6C00002000E400E020ED00E010
:1051900004ED00E0F0E300E00CED00E006D281F366
:1051A0001188BFF34F8FBFF36F8FFEE7704700008A
:1051B000054906480A684FF47A73B2FBF3F35B1EA5
:1051C00043600721016070478400002010E000E088
:1051D00038B590F821200024022A00F1340103D0D0
:1051E0000420486001243BE00268136823F00E03AA
:1051F00013600268DFF8783015686D086D0015607F
:1052000002689A4208BF012222D0DFF868309A4231
:1052100008BF10221CD0DFF860309A4208BF4FF45C
:10522000807215D0DFF854309A4208BF4FF4805294
:105230000ED0DFF84C309A4208BF4FF4803207D0CE
:10524000DFF840309A420CBF4FF480124FF080726A
:10525000DFF834301A6000F005F8096801B18847BA
:10526000204632BD012280F8212080F8204070477E
:10527000080002401C00024030000240440002408E
:10528000580002406C000240040002407047704722
:10529000EFF30980BFF36F8F1D4B1A6820E9F00F01
:1052A000106008B54FF0500080F31188BFF34F8FA6
:1052B000BFF36F8FFFF750F84FF0000080F31188B5
:1052C000BDE8084019680868B0E8F00F80F3098865
:1052D000BFF36F8F70470E4B19680868B0E8F00F86
:1052E00080F30988BFF36F8F4FF0000080F31188BF
:1052F0004EF00D0E704707480068006880F308887C
:1053000062B661B6BFF34F8FBFF36F8F00DF00004F
:105310009C25002008ED00E038B505680FF280609C
:10532000DFF8384601680091002269462046FEF702
:1053300012F830BB29569DF800208A184EBF17215D
:105340009DF8000009188DF80010204695F901100D
:105350009DF801208B184CBF3B2189188DF8011056
:105360009DF8022095F902108B184CBF3B2189183B
:105370008DF8021000226946FDF7A8FF08B1FCF77E
:1053800095F831BD80B5FFF7C7FFDFF8D4150120D0
:105390008867322002BDDFF8C81500208867704793
:1053A000DFF8BC05017C012902D0022901D001E00F
:1053B0002DE020E039E080B5DFF8A415087C28B99D
:1053C000DFF8A0258A6600F016F803E00020886761
:1053D00000F02BF8002002BDDFF88405DFF8881507
:1053E00081648162DFF8841501650163DFF880154F
:1053F000C164C162704710B5DFF8644501202074B4
:10540000FFF7EAFF04F1800004F184010AE010B51F
:10541000DFF84C4502202074FFF7DEFF04F188001E
:1054200004F18C01A063A16110BD10B5DFF8300557
:10543000002101740022DFF83C1501678266826456
:10544000826200240FF26D1101650FF27901016390
:105450005AE0F8B56A460421002000F0C2FA00982C
:10546000DFF81415884202D000F009F805E0DFF8F3
:10547000F00469461022FBF7CBFD05B000BD80B5F6
:1054800000F092FABDE80840DFF8D424042100209F
:1054900000F0BBBADFF8C804017A491C4A1001EBDE
:1054A00092739B10A1EB830101727047DFF8B00487
:1054B000417A491C072291FBF2F2C2EBC202891A1F
:1054C0004172704780B5DFF89814087C10B900F07D
:1054D00007F803E0FFF7D3FFFFF7A7FF002002BDA7
:1054E00010B5DFF87C0404210022017482620024DC
:1054F000DFF88814DFF88824016382640021DFF874
:1055000084240165826601670121E0B2FEF79DFCFB
:10551000641CE2B2042AF7DB10BD38B5DFF868443A
:105520002046FEF7BDF9DFF864142046FEF7E6F9E1
:10553000662538B92046FEF7CAFAC0F58050282102
:10554000B0FBF1F5DFF81814C8888A885A2D88BF97
:105550006425121A55435A23B5FBF3F3C01880B2E1
:1055600032BDDFF8FC03417C491C032291FBF2F2BF
:1055700002EB4202891A417470470168DFF8E03398
:10558000587C08B99A1D02E0012808BF1A1DB2F91B
:10559000000049B2091809B2002948BF00211429A6
:1055A000C8BF14211180D8889988814238BF98805B
:1055B0007047000080B5DFF8A803017C052904D1FD
:1055C000FFF75DFFFFF731FF01E000F002F8002078
:1055D00002BDDFF88C0305210022017402634FF045
:1055E000FF33DFF8AC13DFF8AC23816283618264A0
:1055F00081660122DFF8A03303650021016782651F
:1056000070470000D649C86F80EAC06080EA9030D9
:1056100080EA0010C86770472DE9F8434FF08040DA
:10562000FEF7D7FB0020FEF7D7FBFFF712FFFFF7CF
:10563000FCFEDFF828830FF26C35C94F0A2621E003
:10564000B88AA04202D0FFF7DDFFBC82002097F8A5
:105650007C1001F00101FEF7F0FB97F87C1001F0DF
:10566000020100F05AF997F87C1001F0040100F0F3
:1056700050F997F87C1001F008010320FEF7DDFBDC
:10568000FEF7D1FB6420FCF779FD788A64307882DC
:1056900042F2117180B28842A4BF00207882788AD9
:1056A000C82190FBF1F1C82202FB11006428B86FF9
:1056B000B4BF0124002400B10124387AFEF79FFB17
:1056C000387C012807D002285BD004286AD005283E
:1056D00000F0838012E00020FEF791FB21460020BD
:1056E000FEF7B3FB21460120FEF7AFFB01210220AC
:1056F000FEF7ABFB01210320FEF7A7FB788A4FF4EE
:10570000FA7190FBF1F14FF4FA7202FB11000028DC
:10571000B8D1FFF702FFFEF752FB28680090002285
:1057200069464046FDF717FE0028ABD19DF8000002
:1057300000F0DEF89DF8001000F0E1F89DF801009F
:1057400000F0CFF89DF8011000F0C4F80320FEF738
:105750006BFB9DF80240FEF774FB787A401E05282B
:105760008ED8DFE800F08305978EAD0488E767E701
:10577000621004EB92708010A4EB80040121E0B26F
:105780007CE70020FEF73BFB01210020FEF75DFBDC
:1057900001210120FEF759FB21460220FEF755FBAF
:1057A0002146A8E7788A4FF4967190FBF1F14FF407
:1057B000967202FB1100002834D1FEF742FB788A72
:1057C000C82190FBF1F188B2FEF706FB788A4FF40E
:1057D000967190FBF1F4A4B2BDE7FEF732FB787C42
:1057E000022820D1FFF799FE0446FEF7E8FA00F000
:1057F00093F800F08DF84FF0FF310020FEF714FB16
:1058000094FBF6F94FFA89F10120FEF70DFB06FB38
:10581000194461B20220FEF707FB4FF0FF3103206D
:10582000FEF702FB2EE740B9F888FEF7C8FA01211F
:105830000320FEF702FB00F06BF8787C012808D10A
:10584000B888FEF7BCFA01210020FEF7F6FA00F056
:1058500063F8B88800F04CF8B98800F050F8F88880
:1058600000F03FF8F98800F035F8D8E7C4F10300FC
:10587000621004EB9274A41000EB84000121C0B20A
:10588000FCE6032194FBF1F1C4F1020001EB4101BC
:105890000C1805E0032094FBF0F000EB4000241A04
:1058A000E4B214B1012C05D0EAE600F035F801218C
:1058B0000220E3E601210020FEF7BFFA0121DCE629
:1058C00004EBD4704010A4EB4004E1B200F025F8E2
:1058D000E1B2EDE70A2091FBF0F006FB101149B2AE
:1058E00070470A2190FBF1F149B20220FEF79CBA01
:1058F0000A2190FBF1F149B20020FEF795BA0A2087
:1059000091FBF0F006FB101149B20120FEF78CBAB2
:1059100001210220FEF791BA01210120FEF78DBA84
:1059200038B50F4C1D4D0822294604F1180000F02F
:1059300095F80222294604F1380000F08FF804227D
:10594000294604F1580000F089F8FFF76EFD00F0D9
:10595000D4F83220FCF712FCF9E7000028280020D8
:1059600088000020A153000819530008855300083F
:1059700097530008B7530008775533FFC554000804
:10598000AD54000895540008F827002040420F004D
:105990007B55000863550008B55500080008014014
:1059A000000000000000000000B585B000F0EDF838
:1059B0000121049102910022274903910192694635
:1059C00001A800F05BF938B900F0EFF8009810F189
:1059D000010F03D1012002E000F0E7F8002005B03C
:1059E00000BD10B5091840F20113994208DB0020F0
:1059F00010BD194C04EB8304401C236842F8043B9F
:105A000083B28B42F5DB012010BDF8B505460E468A
:105A1000701940F201118842144616DA00F0B5F808
:105A200000F0B3F8002700E07F1CB7420FDAE81956
:105A3000094954F8272001EB80010023022000F0DF
:105A400069F80028F0D000F0B0F80020F2BD00F0B6
:105A5000ACF80120F2BD00000078000870B50D46DA
:105A6000164604462022002100F074F9A17A6560F0
:105A700041F00101A1724FF42F70E081012224490D
:105A80002681E272086800B90C60486800B1C46100
:105A90004C6070BD38B5054629896868FDF71DF86A
:105AA000040018D1AA8929693232AA8129B1A87AB9
:105AB000C30702D5284688471AE0A96900291CBFF8
:105AC000E87A002814D0E88992B2824210D328469E
:105AD0008847E8720CE0A87A00F00100A04207D0E5
